{
  "contractName": "TicTacToe",
  "abi": [
    {
      "constant": true,
      "inputs": [],
      "name": "player2",
      "outputs": [
        {
          "name": "",
          "type": "address"
        }
      ],
      "payable": false,
      "stateMutability": "view",
      "type": "function"
    },
    {
      "constant": true,
      "inputs": [],
      "name": "boardSize",
      "outputs": [
        {
          "name": "",
          "type": "uint8"
        }
      ],
      "payable": false,
      "stateMutability": "view",
      "type": "function"
    },
    {
      "constant": true,
      "inputs": [],
      "name": "gameCost",
      "outputs": [
        {
          "name": "",
          "type": "uint256"
        }
      ],
      "payable": false,
      "stateMutability": "view",
      "type": "function"
    },
    {
      "constant": true,
      "inputs": [],
      "name": "player1",
      "outputs": [
        {
          "name": "",
          "type": "address"
        }
      ],
      "payable": false,
      "stateMutability": "view",
      "type": "function"
    },
    {
      "inputs": [],
      "payable": true,
      "stateMutability": "payable",
      "type": "constructor"
    },
    {
      "anonymous": false,
      "inputs": [
        {
          "indexed": false,
          "name": "player",
          "type": "address"
        }
      ],
      "name": "NextPlayer",
      "type": "event"
    },
    {
      "anonymous": false,
      "inputs": [
        {
          "indexed": false,
          "name": "player",
          "type": "address"
        }
      ],
      "name": "PlayerJoined",
      "type": "event"
    },
    {
      "anonymous": false,
      "inputs": [
        {
          "indexed": false,
          "name": "winner",
          "type": "address"
        }
      ],
      "name": "GameOverWithWin",
      "type": "event"
    },
    {
      "anonymous": false,
      "inputs": [],
      "name": "GameOverWithDraw",
      "type": "event"
    },
    {
      "anonymous": false,
      "inputs": [
        {
          "indexed": false,
          "name": "receiver",
          "type": "address"
        },
        {
          "indexed": false,
          "name": "amountInWei",
          "type": "uint256"
        }
      ],
      "name": "PayoutSuccess",
      "type": "event"
    },
    {
      "constant": false,
      "inputs": [],
      "name": "JoinGame",
      "outputs": [],
      "payable": true,
      "stateMutability": "payable",
      "type": "function"
    },
    {
      "constant": true,
      "inputs": [],
      "name": "getBoard",
      "outputs": [
        {
          "name": "",
          "type": "address[3][3]"
        }
      ],
      "payable": false,
      "stateMutability": "view",
      "type": "function"
    },
    {
      "constant": false,
      "inputs": [],
      "name": "withdrawWin",
      "outputs": [],
      "payable": false,
      "stateMutability": "nonpayable",
      "type": "function"
    },
    {
      "constant": false,
      "inputs": [],
      "name": "emergecyCashout",
      "outputs": [],
      "payable": false,
      "stateMutability": "nonpayable",
      "type": "function"
    },
    {
      "constant": false,
      "inputs": [
        {
          "name": "x",
          "type": "uint8"
        },
        {
          "name": "y",
          "type": "uint8"
        }
      ],
      "name": "setStone",
      "outputs": [],
      "payable": false,
      "stateMutability": "nonpayable",
      "type": "function"
    }
  ],
  "bytecode": "0x606060405260036000806101000a81548160ff021916908360ff16021790555060b4600e5533600a60006101000a81548173ffffffffffffffffffffffffffffffffffffffff021916908373ffffffffffffffffffffffffffffffffffffffff16021790555067016345785d8a00003414151561007b57600080fd5b600e544201600f81905550611697806100956000396000f300606060405260043610610099576000357c0100000000000000000000000000000000000000000000000000000000900463ffffffff1680633264a34b1461009e5780634d30c00d1461011257806359a5f12d1461011c5780637d3f907414610171578063c51d69f4146101a3578063cab896dc146101d2578063d30895e4146101fb578063ea40a2a214610250578063fb81550314610265575b600080fd5b34156100a957600080fd5b6100b161027a565b604051808260036000925b818410156101025782846020020151600360200280838360005b838110156100f15780820151818401526020810190506100d6565b5050505090500192600101926100bc565b9250505091505060405180910390f35b61011a610333565b005b341561012757600080fd5b61012f6105f7565b604051808273ffffffffffffffffffffffffffffffffffffffff1673ffffffffffffffffffffffffffffffffffffffff16815260200191505060405180910390f35b341561017c57600080fd5b6101a1600480803560ff1690602001909190803560ff1690602001909190505061061d565b005b34156101ae57600080fd5b6101b6610ed3565b604051808260ff1660ff16815260200191505060405180910390f35b34156101dd57600080fd5b6101e5610ee5565b6040518082815260200191505060405180910390f35b341561020657600080fd5b61020e610ef1565b604051808273ffffffffffffffffffffffffffffffffffffffff1673ffffffffffffffffffffffffffffffffffffffff16815260200191505060405180910390f35b341561025b57600080fd5b610263610f17565b005b341561027057600080fd5b610278610f4c565b005b6102826115fe565b6001600380602002604051908101604052809291906000905b8282101561032a57838260030201600380602002604051908101604052809291908260038015610316576020028201915b8160009054906101000a900473ffffffffffffffffffffffffffffffffffffffff1673ffffffffffffffffffffffffffffffffffffffff16815260200190600101908083116102cc575b50505050508152602001906001019061029b565b50505050905090565b600073ffffffffffffffffffffffffffffffffffffffff16600b60009054906101000a900473ffffffffffffffffffffffffffffffffffffffff1673ffffffffffffffffffffffffffffffffffffffff1614151561038d57fe5b6001600060026101000a81548160ff02191690831515021790555067016345785d8a0000341415156103be57600080fd5b33600b60006101000a81548173ffffffffffffffffffffffffffffffffffffffff021916908373ffffffffffffffffffffffffffffffffffffffff1602179055507f31e760aa525306aba638a784082a013b6a1cc0a9a1789f3f22281c0453b10b1f600b60009054906101000a900473ffffffffffffffffffffffffffffffffffffffff16604051808273ffffffffffffffffffffffffffffffffffffffff1673ffffffffffffffffffffffffffffffffffffffff16815260200191505060405180910390a1600060024381151561049257fe5b06141561050157600b60009054906101000a900473ffffffffffffffffffffffffffffffffffffffff16601060006101000a81548173ffffffffffffffffffffffffffffffffffffffff021916908373ffffffffffffffffffffffffffffffffffffffff160217905550610565565b600a60009054906101000a900473ffffffffffffffffffffffffffffffffffffffff16601060006101000a81548173ffffffffffffffffffffffffffffffffffffffff021916908373ffffffffffffffffffffffffffffffffffffffff1602179055505b600e544201600f819055507f637351f91da430278368fb3e486c8c3da47b2e6ce4d28b2c404cb044702ca7e1600b60009054906101000a900473ffffffffffffffffffffffffffffffffffffffff16604051808273ffffffffffffffffffffffffffffffffffffffff1673ffffffffffffffffffffffffffffffffffffffff16815260200191505060405180910390a1565b600b60009054906101000a900473ffffffffffffffffffffffffffffffffffffffff1681565b60008073ffffffffffffffffffffffffffffffffffffffff1660018460ff1660038110151561064857fe5b600302018360ff1660038110151561065c57fe5b0160009054906101000a900473ffffffffffffffffffffffffffffffffffffffff1673ffffffffffffffffffffffffffffffffffffffff161415156106a057600080fd5b42600f541115156106b057600080fd5b600060029054906101000a900460ff1615156106c857fe5b6000809054906101000a900460ff1660ff168360ff161015156106e757fe5b6000809054906101000a900460ff1660ff168260ff1610151561070657fe5b601060009054906101000a900473ffffffffffffffffffffffffffffffffffffffff1673ffffffffffffffffffffffffffffffffffffffff163373ffffffffffffffffffffffffffffffffffffffff1614151561076257600080fd5b3360018460ff1660038110151561077557fe5b600302018360ff1660038110151561078957fe5b0160006101000a81548173ffffffffffffffffffffffffffffffffffffffff021916908373ffffffffffffffffffffffffffffffffffffffff1602179055506000600181819054906101000a900460ff168092919060010191906101000a81548160ff021916908360ff16021790555050600e544201600f81905550600090505b6000809054906101000a900460ff1660ff168160ff16101561092557601060009054906101000a900473ffffffffffffffffffffffffffffffffffffffff1673ffffffffffffffffffffffffffffffffffffffff1660018260ff1660038110151561087157fe5b600302018360ff1660038110151561088557fe5b0160009054906101000a900473ffffffffffffffffffffffffffffffffffffffff1673ffffffffffffffffffffffffffffffffffffffff161415156108c957610925565b60016000809054906101000a900460ff160360ff168160ff16141561091857610913601060009054906101000a900473ffffffffffffffffffffffffffffffffffffffff166111c7565b610ece565b808060010191505061080a565b600090505b6000809054906101000a900460ff1660ff168160ff161015610a4557601060009054906101000a900473ffffffffffffffffffffffffffffffffffffffff1673ffffffffffffffffffffffffffffffffffffffff1660018460ff1660038110151561099157fe5b600302018260ff166003811015156109a557fe5b0160009054906101000a900473ffffffffffffffffffffffffffffffffffffffff1673ffffffffffffffffffffffffffffffffffffffff161415156109e957610a45565b60016000809054906101000a900460ff160360ff168160ff161415610a3857610a33601060009054906101000a900473ffffffffffffffffffffffffffffffffffffffff166111c7565b610ece565b808060010191505061092a565b8160ff168360ff161415610b7457600090505b6000809054906101000a900460ff1660ff168160ff161015610b7357601060009054906101000a900473ffffffffffffffffffffffffffffffffffffffff1673ffffffffffffffffffffffffffffffffffffffff1660018260ff16600381101515610abf57fe5b600302018260ff16600381101515610ad357fe5b0160009054906101000a900473ffffffffffffffffffffffffffffffffffffffff1673ffffffffffffffffffffffffffffffffffffffff16141515610b1757610b73565b60016000809054906101000a900460ff160360ff168160ff161415610b6657610b61601060009054906101000a900473ffffffffffffffffffffffffffffffffffffffff166111c7565b610ece565b8080600101915050610a58565b5b60016000809054906101000a900460ff160360ff1682840160ff161415610cc957600090505b6000809054906101000a900460ff1660ff168160ff161015610cc857601060009054906101000a900473ffffffffffffffffffffffffffffffffffffffff1673ffffffffffffffffffffffffffffffffffffffff1660018260ff16600381101515610c0157fe5b600302018260016000809054906101000a900460ff16030360ff16600381101515610c2857fe5b0160009054906101000a900473ffffffffffffffffffffffffffffffffffffffff1673ffffffffffffffffffffffffffffffffffffffff16141515610c6c57610cc8565b60016000809054906101000a900460ff160360ff168160ff161415610cbb57610cb6601060009054906101000a900473ffffffffffffffffffffffffffffffffffffffff166111c7565b610ece565b8080600101915050610b9a565b5b60026000809054906101000a900460ff160a60ff16600060019054906101000a900460ff1660ff161415610d0457610cff611381565b610ece565b600a60009054906101000a900473ffffffffffffffffffffffffffffffffffffffff1673ffffffffffffffffffffffffffffffffffffffff16601060009054906101000a900473ffffffffffffffffffffffffffffffffffffffff1673ffffffffffffffffffffffffffffffffffffffff161415610de457600b60009054906101000a900473ffffffffffffffffffffffffffffffffffffffff16601060006101000a81548173ffffffffffffffffffffffffffffffffffffffff021916908373ffffffffffffffffffffffffffffffffffffffff160217905550610e48565b600a60009054906101000a900473ffffffffffffffffffffffffffffffffffffffff16601060006101000a81548173ffffffffffffffffffffffffffffffffffffffff021916908373ffffffffffffffffffffffffffffffffffffffff1602179055505b7f637351f91da430278368fb3e486c8c3da47b2e6ce4d28b2c404cb044702ca7e1601060009054906101000a900473ffffffffffffffffffffffffffffffffffffffff16604051808273ffffffffffffffffffffffffffffffffffffffff1673ffffffffffffffffffffffffffffffffffffffff16815260200191505060405180910390a15b505050565b6000809054906101000a900460ff1681565b67016345785d8a000081565b600a60009054906101000a900473ffffffffffffffffffffffffffffffffffffffff1681565b42600f54101515610f2757600080fd5b600060029054906101000a900460ff161515610f4257600080fd5b610f4a611381565b565b6000600a60009054906101000a900473ffffffffffffffffffffffffffffffffffffffff1673ffffffffffffffffffffffffffffffffffffffff163373ffffffffffffffffffffffffffffffffffffffff1614156110b6576000600c54111515610fb557600080fd5b600c5490506000600c81905550600a60009054906101000a900473ffffffffffffffffffffffffffffffffffffffff1673ffffffffffffffffffffffffffffffffffffffff166108fc829081150290604051600060405180830381858888f19350505050151561102457600080fd5b7f2a44162a2d5223e37cacacc3f626dcfee1396e0be3616534c5c7b718f786b673600a60009054906101000a900473ffffffffffffffffffffffffffffffffffffffff1682604051808373ffffffffffffffffffffffffffffffffffffffff1673ffffffffffffffffffffffffffffffffffffffff1681526020018281526020019250505060405180910390a16111c4565b6000600d541115156110c757600080fd5b600d5490506000600d81905550600b60009054906101000a900473ffffffffffffffffffffffffffffffffffffffff1673ffffffffffffffffffffffffffffffffffffffff166108fc829081150290604051600060405180830381858888f19350505050151561113657600080fd5b7f2a44162a2d5223e37cacacc3f626dcfee1396e0be3616534c5c7b718f786b673600b60009054906101000a900473ffffffffffffffffffffffffffffffffffffffff1682604051808373ffffffffffffffffffffffffffffffffffffffff1673ffffffffffffffffffffffffffffffffffffffff1681526020018281526020019250505060405180910390a15b50565b600080600060026101000a81548160ff0219169083151502179055507f8245a3876d42d9b0bdb7f24184c03fc24e3d8a079f492b1ec9ceae70b366edf982604051808273ffffffffffffffffffffffffffffffffffffffff1673ffffffffffffffffffffffffffffffffffffffff16815260200191505060405180910390a13073ffffffffffffffffffffffffffffffffffffffff16319050600115158273ffffffffffffffffffffffffffffffffffffffff166108fc839081150290604051600060405180830381858888f19350505050151514151561131157600a60009054906101000a900473ffffffffffffffffffffffffffffffffffffffff1673ffffffffffffffffffffffffffffffffffffffff168273ffffffffffffffffffffffffffffffffffffffff1614156113045780600c8190555061130c565b80600d819055505b61137d565b7f2a44162a2d5223e37cacacc3f626dcfee1396e0be3616534c5c7b718f786b6738282604051808373ffffffffffffffffffffffffffffffffffffffff1673ffffffffffffffffffffffffffffffffffffffff1681526020018281526020019250505060405180910390a15b5050565b600080600060026101000a81548160ff0219169083151502179055507f2207d46a2ba0f2acda06e9a222b40fd004e385738b3f868e63b2c0bfe4bc094c60405160405180910390a160023073ffffffffffffffffffffffffffffffffffffffff16318115156113ec57fe5b04905060001515600a60009054906101000a900473ffffffffffffffffffffffffffffffffffffffff1673ffffffffffffffffffffffffffffffffffffffff166108fc839081150290604051600060405180830381858888f19350505050151514156114675780600c600082825401925050819055506114f5565b7f2a44162a2d5223e37cacacc3f626dcfee1396e0be3616534c5c7b718f786b673600a60009054906101000a900473ffffffffffffffffffffffffffffffffffffffff1682604051808373ffffffffffffffffffffffffffffffffffffffff1673ffffffffffffffffffffffffffffffffffffffff1681526020018281526020019250505060405180910390a15b60001515600b60009054906101000a900473ffffffffffffffffffffffffffffffffffffffff1673ffffffffffffffffffffffffffffffffffffffff166108fc839081150290604051600060405180830381858888f193505050501515141561156d5780600d600082825401925050819055506115fb565b7f2a44162a2d5223e37cacacc3f626dcfee1396e0be3616534c5c7b718f786b673600b60009054906101000a900473ffffffffffffffffffffffffffffffffffffffff1682604051808373ffffffffffffffffffffffffffffffffffffffff1673ffffffffffffffffffffffffffffffffffffffff1681526020018281526020019250505060405180910390a15b50565b610120604051908101604052806003905b61161761162d565b81526020019060019003908161160f5790505090565b6060604051908101604052806003905b600073ffffffffffffffffffffffffffffffffffffffff1681526020019060019003908161163d57905050905600a165627a7a7230582004c8c50a1b4c23aa9a0a2159ba904091c2bc4d3b5281272ec7562777e6160e110029",
  "source": "pragma solidity ^0.4.18;\n\ncontract TicTacToe {\n    uint constant public gameCost = 0.1 ether;\n\n    uint8 public boardSize = 3;\n    uint8 movesCounter;\n\n    bool gameActive;\n\n    address[3][3] board;\n\n    address public player1;\n    address public player2;\n\n    uint balanceToWithdrawPlayer1;\n    uint balanceToWithdrawPlayer2;\n\n    uint timeToReact = 3 minutes;\n    uint gameValidUntil;\n\n    address activePlayer;\n    event NextPlayer(address player);\n    event PlayerJoined(address player);\n    event GameOverWithWin(address winner);\n    event GameOverWithDraw();\n    event PayoutSuccess(address receiver, uint amountInWei);\n\n    function TicTacToe() public payable {\n        player1 = msg.sender;\n        require(msg.value == gameCost);\n        gameValidUntil = now+timeToReact;\n    }\n\n    function JoinGame() public payable {\n        assert(player2 == address(0));\n        gameActive = true;\n\n        require(msg.value == gameCost);\n\n        player2 = msg.sender;\n        PlayerJoined(player2);\n        if(block.number % 2 == 0) {\n            activePlayer = player2;\n        } else {\n            activePlayer = player1;\n        }\n\n        gameValidUntil = now + timeToReact;\n\n        NextPlayer(player2);\n    }\n\n    function getBoard() public view returns(address[3][3]) {\n        return board;\n    }\n\n    function setWinner(address player) private {\n        gameActive = false;\n        //emit an event\n        GameOverWithWin(player);\n        uint balanceToPayOut = address(this).balance;\n        if(player.send(balanceToPayOut) != true) {\n            if(player == player1) {\n                balanceToWithdrawPlayer1 = balanceToPayOut;\n            } else {\n                balanceToWithdrawPlayer2 = balanceToPayOut;\n            }\n        } else {\n            PayoutSuccess(player, balanceToPayOut);\n        }\n        //transfer money to the winner\n    }\n\n    function withdrawWin() public {\n      uint balanceToTransfer;\n        if(msg.sender == player1) {\n            require(balanceToWithdrawPlayer1 > 0);\n            balanceToTransfer = balanceToWithdrawPlayer1;\n            balanceToWithdrawPlayer1 = 0;\n            player1.transfer(balanceToTransfer);\n\n            PayoutSuccess(player1, balanceToTransfer);\n        } else {\n\n            require(balanceToWithdrawPlayer2 > 0);\n            balanceToTransfer = balanceToWithdrawPlayer2;\n            balanceToWithdrawPlayer2 = 0;\n            player2.transfer(balanceToTransfer);\n            PayoutSuccess(player2, balanceToTransfer);\n        }\n    }\n\n    function setDraw() private {\n        gameActive = false;\n        GameOverWithDraw();\n\n        uint balanceToPayOut = address(this).balance/2;\n\n        if(player1.send(balanceToPayOut) == false) {\n            balanceToWithdrawPlayer1 += balanceToPayOut;\n        } else {\n            PayoutSuccess(player1, balanceToPayOut);\n        }\n        if(player2.send(balanceToPayOut) == false) {\n            balanceToWithdrawPlayer2 += balanceToPayOut;\n        } else {\n            PayoutSuccess(player2, balanceToPayOut);\n        }\n\n    }\n\n    function emergecyCashout() public {\n        require(gameValidUntil < now);\n        require(gameActive);\n        setDraw();\n    }\n\n\n    function setStone(uint8 x, uint8 y) public {\n        require(board[x][y] == address(0));\n        require(gameValidUntil > now);\n        assert(gameActive);\n        assert(x < boardSize);\n        assert(y < boardSize);\n        require(msg.sender == activePlayer);\n        board[x][y] = msg.sender;\n        movesCounter++;\n        gameValidUntil = now + timeToReact;\n\n        for(uint8 i = 0; i < boardSize; i++) {\n            if(board[i][y] != activePlayer) {\n                break;\n            }\n            //win\n            if(i == boardSize - 1) {\n                //winner\n                setWinner(activePlayer);\n                return;\n            }\n        }\n        for(i = 0; i < boardSize; i++) {\n            if(board[x][i] != activePlayer) {\n                break;\n            }\n            //win\n\n            if(i == boardSize - 1) {\n                //winner\n                setWinner(activePlayer);\n                return;\n            }\n        }\n\n        //diagonale\n        if(x == y) {\n            for(i = 0; i < boardSize; i++) {\n                if(board[i][i] != activePlayer) {\n                    break;\n                }\n                //win\n                if(i == boardSize - 1) {\n                    //winner\n                    setWinner(activePlayer);\n                    return;\n                }\n            }\n        }\n\n        //anti-diagonale\n        if((x+y) == boardSize-1) {\n            for(i = 0; i < boardSize; i++) {\n                if(board[i][(boardSize-1)-i] != activePlayer) {\n                    break;\n                }\n                //win\n\n                if(i == boardSize - 1) {\n                    //winner\n                    setWinner(activePlayer);\n                    return;\n                }\n            }\n        }\n\n        //draw\n        if(movesCounter == (boardSize**2)) {\n            //draw\n            setDraw();\n            return;\n        }\n\n        if(activePlayer == player1) {\n            activePlayer = player2;\n        } else {\n            activePlayer = player1;\n        }\n        NextPlayer(activePlayer);\n    }\n}\n",
  "sourcePath": "/Users/alexkehaya/Desktop/ethproject/contracts/TicTacToe.sol",
  "compiler": {
    "name": "solc",
    "version": "0.4.19+commit.c4cbbb05.Emscripten.clang"
  },
  "schemaVersion": "2.0.0",
  "updatedAt": "2018-03-21T03:00:30.014Z"
}